{
  "abi": [
    {
      "inputs": [
        {
          "internalType": "address payable[]",
          "name": "merchants",
          "type": "address[]"
        },
        {
          "internalType": "address payable[]",
          "name": "proofs",
          "type": "address[]"
        },
        {
          "internalType": "uint256[]",
          "name": "amounts",
          "type": "uint256[]"
        },
        {
          "internalType": "address[]",
          "name": "currencys",
          "type": "address[]"
        },
        {
          "internalType": "bytes32[]",
          "name": "recieptHashes",
          "type": "bytes32[]"
        }
      ],
      "name": "batch",
      "outputs": [],
      "stateMutability": "nonpayable",
      "type": "function"
    },
    {
      "inputs": [
        {
          "internalType": "address",
          "name": "merchant",
          "type": "address"
        },
        {
          "internalType": "address",
          "name": "proof",
          "type": "address"
        },
        {
          "internalType": "uint256",
          "name": "amount",
          "type": "uint256"
        },
        {
          "internalType": "address",
          "name": "currency",
          "type": "address"
        }
      ],
      "name": "getBytecode",
      "outputs": [
        {
          "internalType": "bytes",
          "name": "",
          "type": "bytes"
        }
      ],
      "stateMutability": "view",
      "type": "function"
    },
    {
      "inputs": [
        {
          "internalType": "address",
          "name": "merchant",
          "type": "address"
        },
        {
          "internalType": "address",
          "name": "proof",
          "type": "address"
        },
        {
          "internalType": "uint256",
          "name": "amount",
          "type": "uint256"
        },
        {
          "internalType": "address",
          "name": "currency",
          "type": "address"
        },
        {
          "internalType": "bytes32",
          "name": "recieptHash",
          "type": "bytes32"
        }
      ],
      "name": "getPaymentAddress",
      "outputs": [
        {
          "internalType": "address",
          "name": "",
          "type": "address"
        }
      ],
      "stateMutability": "view",
      "type": "function"
    },
    {
      "inputs": [
        {
          "internalType": "address",
          "name": "payout",
          "type": "address"
        },
        {
          "internalType": "address",
          "name": "currency",
          "type": "address"
        },
        {
          "internalType": "uint256",
          "name": "amount",
          "type": "uint256"
        },
        {
          "internalType": "bytes32",
          "name": "listing",
          "type": "bytes32"
        }
      ],
      "name": "issueRefund",
      "outputs": [],
      "stateMutability": "nonpayable",
      "type": "function"
    },
    {
      "inputs": [],
      "name": "markSuccussfulTransfer",
      "outputs": [],
      "stateMutability": "nonpayable",
      "type": "function"
    },
    {
      "inputs": [
        {
          "internalType": "address payable",
          "name": "merchant",
          "type": "address"
        },
        {
          "internalType": "address payable",
          "name": "proof",
          "type": "address"
        },
        {
          "internalType": "uint256",
          "name": "amount",
          "type": "uint256"
        },
        {
          "internalType": "address",
          "name": "currency",
          "type": "address"
        },
        {
          "internalType": "bytes32",
          "name": "recieptHash",
          "type": "bytes32"
        }
      ],
      "name": "processPayment",
      "outputs": [],
      "stateMutability": "nonpayable",
      "type": "function"
    },
    {
      "inputs": [
        {
          "internalType": "address",
          "name": "merchant",
          "type": "address"
        },
        {
          "internalType": "address",
          "name": "proof",
          "type": "address"
        },
        {
          "internalType": "address",
          "name": "currency",
          "type": "address"
        },
        {
          "internalType": "bytes32",
          "name": "listing",
          "type": "bytes32"
        }
      ],
      "name": "processRefund",
      "outputs": [],
      "stateMutability": "nonpayable",
      "type": "function"
    }
  ],
  "bytecode": {
    "object": "0x60806040526040516100109061005f565b604051809103906000f08015801561002c573d6000803e3d6000fd5b50600080546001600160a01b0319166001600160a01b039290921691909117905534801561005957600080fd5b5061006c565b61161b80610f5383390190565b610ed88061007b6000396000f3fe60806040523480156200001157600080fd5b5060043610620000875760003560e01c806385a2a8b6116200006257806385a2a8b614620000f05780638c2e45c21462000116578063d328f9321462000127578063f470433f146200013f57600080fd5b80630b37a687146200008c578063262b325a14620000a55780635bfa6eae14620000d9575b600080fd5b620000a36200009d366004620005c0565b50505050565b005b620000bc620000b636600462000618565b62000156565b6040516001600160a01b0390911681526020015b60405180910390f35b620000a3620000ea366004620006c9565b620001e2565b6200010762000101366004620007ca565b620002d6565b604051620000d091906200084a565b620000a36200009d3660046200087f565b620000a3600180546001600160a01b03191633179055565b620000a36200015036600462000618565b620003dc565b6000806001600160f81b03193084620001728a8a8a8a620002d6565b8051602091820120604051620001bf95949392016001600160f81b031994909416845260609290921b6bffffffffffffffffffffffff191660018401526015830152603582015260550190565b60408051808303601f190181529190528051602090910120979650505050505050565b60005b89811015620002c957620002b48b8b83818110620002075762000207620008ca565b90506020020160208101906200021e9190620008e0565b8a8a84818110620002335762000233620008ca565b90506020020160208101906200024a9190620008e0565b8989858181106200025f576200025f620008ca565b905060200201358888868181106200027b576200027b620008ca565b9050602002016020810190620002929190620008e0565b878787818110620002a757620002a7620008ca565b90506020020135620003dc565b80620002c08162000907565b915050620001e5565b5050505050505050505050565b6060806001600160a01b0383166200037257604051620002f9602082016200058b565b601f1982820381018352601f9091011660408181526001600160a01b03808a16602084015288169082015260608101869052306080820152909150819060a0015b60408051601f19818403018152908290526200035a92916020016200092f565b604051602081830303815290604052915050620003d4565b604051620003836020820162000599565b601f1982820381018352601f9091011660408181526001600160a01b03808a1660208401528089169183019190915260608201879052851660808201523060a0820152909150819060c0016200033a565b949350505050565b60006001600160a01b0383166200045257818686863060405162000400906200058b565b6001600160a01b0394851681529284166020840152604083019190915290911660608201526080018190604051809103906000f590508015801562000449573d6000803e3d6000fd5b509050620004ba565b818686868630604051620004669062000599565b6001600160a01b0395861681529385166020850152604084019290925283166060830152909116608082015260a0018190604051809103906000f5905080158015620004b6573d6000803e3d6000fd5b5090505b6001546001600160a01b038083169116036200058357600043826040516020016200050192919091825260601b6bffffffffffffffffffffffff1916602082015260340190565b60408051808303601f19018152908290528051602090910120600054630f22c5f760e11b83526001600160a01b03898116600485015260248401839052604484018790529193501690631e458bee90606401600060405180830381600087803b1580156200056e57600080fd5b505af1158015620002c9573d6000803e3d6000fd5b505050505050565b6101dc806200096383390190565b6103648062000b3f83390190565b6001600160a01b0381168114620005bd57600080fd5b50565b60008060008060808587031215620005d757600080fd5b8435620005e481620005a7565b93506020850135620005f681620005a7565b925060408501356200060881620005a7565b9396929550929360600135925050565b600080600080600060a086880312156200063157600080fd5b85356200063e81620005a7565b945060208601356200065081620005a7565b93506040860135925060608601356200066981620005a7565b949793965091946080013592915050565b60008083601f8401126200068d57600080fd5b50813567ffffffffffffffff811115620006a657600080fd5b6020830191508360208260051b8501011115620006c257600080fd5b9250929050565b60008060008060008060008060008060a08b8d031215620006e957600080fd5b8a3567ffffffffffffffff808211156200070257600080fd5b620007108e838f016200067a565b909c509a5060208d01359150808211156200072a57600080fd5b620007388e838f016200067a565b909a50985060408d01359150808211156200075257600080fd5b620007608e838f016200067a565b909850965060608d01359150808211156200077a57600080fd5b620007888e838f016200067a565b909650945060808d0135915080821115620007a257600080fd5b50620007b18d828e016200067a565b915080935050809150509295989b9194979a5092959850565b60008060008060808587031215620007e157600080fd5b8435620007ee81620005a7565b935060208501356200080081620005a7565b92506040850135915060608501356200081981620005a7565b939692955090935050565b60005b838110156200084157818101518382015260200162000827565b50506000910152565b60208152600082518060208401526200086b81604085016020870162000824565b601f01601f19169190910160400192915050565b600080600080608085870312156200089657600080fd5b8435620008a381620005a7565b93506020850135620008b581620005a7565b93969395505050506040820135916060013590565b634e487b7160e01b600052603260045260246000fd5b600060208284031215620008f357600080fd5b81356200090081620005a7565b9392505050565b6000600182016200092857634e487b7160e01b600052601160045260246000fd5b5060010190565b600083516200094381846020880162000824565b8351908301906200095981836020880162000824565b0194935050505056fe60806040526040516101dc3803806101dc8339810160408190526100229161015f565b336001600160a01b0382161461003757600080fd5b4782811015610078576040516001600160a01b0385169082156108fc029083906000818181858888f19350505050158015610076573d6000803e3d6000fd5b005b828111156100c1576001600160a01b0384166108fc61009785846101b4565b6040518115909202916000818181858888f193505050501580156100bf573d6000803e3d6000fd5b505b6040516001600160a01b0386169084156108fc029085906000818181858888f193505050501580156100f7573d6000803e3d6000fd5b50336001600160a01b031663d328f9326040518163ffffffff1660e01b8152600401600060405180830381600087803b15801561013357600080fd5b505af1158015610076573d6000803e3d6000fd5b6001600160a01b038116811461015c57600080fd5b50565b6000806000806080858703121561017557600080fd5b845161018081610147565b602086015190945061019181610147565b6040860151606087015191945092506101a981610147565b939692955090935050565b818103818111156101d557634e487b7160e01b600052601160045260246000fd5b9291505056fe60806040526040516103643803806103648339810160408190526100229161028f565b336001600160a01b0382161461003757600080fd5b6040516370a0823160e01b81523060048201526000906001600160a01b038416906370a0823190602401602060405180830381865afa15801561007e573d6000803e3d6000fd5b505050506040513d601f19601f820116820180604052508101906100a291906102fa565b9050838110156101215760405163a9059cbb60e01b81526001600160a01b0386811660048301526024820183905284169063a9059cbb906044016020604051808303816000875af11580156100fb573d6000803e3d6000fd5b505050506040513d601f19601f8201168201806040525081019061011f9190610313565b005b838111156101b4576001600160a01b03831663a9059cbb86610143878561033c565b6040516001600160e01b031960e085901b1681526001600160a01b03909216600483015260248201526044016020604051808303816000875af115801561018e573d6000803e3d6000fd5b505050506040513d601f19601f820116820180604052508101906101b29190610313565b505b60405163a9059cbb60e01b81526001600160a01b0387811660048301526024820186905284169063a9059cbb906044016020604051808303816000875af1158015610203573d6000803e3d6000fd5b505050506040513d601f19601f820116820180604052508101906102279190610313565b50336001600160a01b031663d328f9326040518163ffffffff1660e01b8152600401600060405180830381600087803b15801561026357600080fd5b505af115801561011f573d6000803e3d6000fd5b6001600160a01b038116811461028c57600080fd5b50565b600080600080600060a086880312156102a757600080fd5b85516102b281610277565b60208701519095506102c381610277565b6040870151606088015191955093506102db81610277565b60808701519092506102ec81610277565b809150509295509295909350565b60006020828403121561030c57600080fd5b5051919050565b60006020828403121561032557600080fd5b8151801515811461033557600080fd5b9392505050565b8181038181111561035d57634e487b7160e01b600052601160045260246000fd5b9291505056fea2646970667358221220e06aaa308277bbd8ef65ecbe261fe00cb7875fc6bf17036f9faae6c6371b1f5564736f6c634300081300336080604052600680546001600160a01b031916331790553480156200002357600080fd5b50604051806040016040528060088152602001674d6173734974656d60c01b81525060405180604001604052806002815260200161135560f21b81525081600090816200007191906200012e565b5060016200008082826200012e565b505050620001fa565b634e487b7160e01b600052604160045260246000fd5b600181811c90821680620000b457607f821691505b602082108103620000d557634e487b7160e01b600052602260045260246000fd5b50919050565b601f8211156200012957600081815260208120601f850160051c81016020861015620001045750805b601f850160051c820191505b81811015620001255782815560010162000110565b5050505b505050565b81516001600160401b038111156200014a576200014a62000089565b62000162816200015b84546200009f565b84620000db565b602080601f8311600181146200019a5760008415620001815750858301515b600019600386901b1c1916600185901b17855562000125565b600085815260208120601f198616915b82811015620001cb57888601518255948401946001909101908401620001aa565b5085821015620001ea5787850151600019600388901b60f8161c191681555b5050505050600190811b01905550565b611411806200020a6000396000f3fe608060405234801561001057600080fd5b50600436106101005760003560e01c806342966c6811610097578063a22cb46511610066578063a22cb4651461022a578063b88d4fde1461023d578063c87b56dd14610250578063e985e9c51461026357600080fd5b806342966c68146101e95780636352211e146101fc57806370a082311461020f57806395d89b411461022257600080fd5b80630f7ee1ec116100d35780630f7ee1ec146101825780631e458bee146101b057806323b872dd146101c357806342842e0e146101d657600080fd5b806301ffc9a71461010557806306fdde031461012d578063081812fc14610142578063095ea7b31461016d575b600080fd5b610118610113366004610f6a565b61029f565b60405190151581526020015b60405180910390f35b6101356102f1565b6040516101249190610fd7565b610155610150366004610fea565b610383565b6040516001600160a01b039091168152602001610124565b61018061017b36600461101f565b6103aa565b005b6101a2610190366004610fea565b60076020526000908152604090205481565b604051908152602001610124565b6101806101be366004611049565b6104c4565b6101806101d136600461107c565b6104f8565b6101806101e436600461107c565b610529565b6101806101f7366004610fea565b610544565b61015561020a366004610fea565b610567565b6101a261021d3660046110b8565b6105c7565b61013561064d565b6101806102383660046110d3565b61065c565b61018061024b366004611125565b61066b565b61013561025e366004610fea565b6106a3565b610118610271366004611201565b6001600160a01b03918216600090815260056020908152604080832093909416825291909152205460ff1690565b60006001600160e01b031982166380ac58cd60e01b14806102d057506001600160e01b03198216635b5e139f60e01b145b806102eb57506301ffc9a760e01b6001600160e01b03198316145b92915050565b60606000805461030090611234565b80601f016020809104026020016040519081016040528092919081815260200182805461032c90611234565b80156103795780601f1061034e57610100808354040283529160200191610379565b820191906000526020600020905b81548152906001019060200180831161035c57829003601f168201915b5050505050905090565b600061038e82610717565b506000908152600460205260409020546001600160a01b031690565b60006103b582610567565b9050806001600160a01b0316836001600160a01b0316036104275760405162461bcd60e51b815260206004820152602160248201527f4552433732313a20617070726f76616c20746f2063757272656e74206f776e656044820152603960f91b60648201526084015b60405180910390fd5b336001600160a01b038216148061044357506104438133610271565b6104b55760405162461bcd60e51b815260206004820152603d60248201527f4552433732313a20617070726f76652063616c6c6572206973206e6f7420746f60448201527f6b656e206f776e6572206f7220617070726f76656420666f7220616c6c000000606482015260840161041e565b6104bf8383610776565b505050565b6006546001600160a01b031633146104db57600080fd5b6104e583836107e4565b6000918252600760205260409091205550565b610502338261096f565b61051e5760405162461bcd60e51b815260040161041e9061126e565b6104bf8383836109ee565b6104bf8383836040518060200160405280600081525061066b565b6006546001600160a01b0316331461055b57600080fd5b61056481610b52565b50565b6000818152600260205260408120546001600160a01b0316806102eb5760405162461bcd60e51b8152602060048201526018602482015277115490cdcc8c4e881a5b9d985b1a59081d1bdad95b88125160421b604482015260640161041e565b60006001600160a01b0382166106315760405162461bcd60e51b815260206004820152602960248201527f4552433732313a2061646472657373207a65726f206973206e6f7420612076616044820152683634b21037bbb732b960b91b606482015260840161041e565b506001600160a01b031660009081526003602052604090205490565b60606001805461030090611234565b610667338383610be7565b5050565b610675338361096f565b6106915760405162461bcd60e51b815260040161041e9061126e565b61069d84848484610cb5565b50505050565b60606106ae82610717565b60006106c560408051602081019091526000815290565b905060008151116106e55760405180602001604052806000815250610710565b806106ef84610ce8565b6040516020016107009291906112bb565b6040516020818303038152906040525b9392505050565b6000818152600260205260409020546001600160a01b03166105645760405162461bcd60e51b8152602060048201526018602482015277115490cdcc8c4e881a5b9d985b1a59081d1bdad95b88125160421b604482015260640161041e565b600081815260046020526040902080546001600160a01b0319166001600160a01b03841690811790915581906107ab82610567565b6001600160a01b03167f8c5be1e5ebec7d5bd14f71427d1e84f3dd0314c0f7b2291e5b200ac8c7c3b92560405160405180910390a45050565b6001600160a01b03821661083a5760405162461bcd60e51b815260206004820181905260248201527f4552433732313a206d696e7420746f20746865207a65726f2061646472657373604482015260640161041e565b6000818152600260205260409020546001600160a01b03161561089f5760405162461bcd60e51b815260206004820152601c60248201527f4552433732313a20746f6b656e20616c7265616479206d696e74656400000000604482015260640161041e565b6000818152600260205260409020546001600160a01b0316156109045760405162461bcd60e51b815260206004820152601c60248201527f4552433732313a20746f6b656e20616c7265616479206d696e74656400000000604482015260640161041e565b6001600160a01b038216600081815260036020908152604080832080546001019055848352600290915280822080546001600160a01b0319168417905551839291907fddf252ad1be2c89b69c2b068fc378daa952ba7f163c4a11628f55a4df523b3ef908290a45050565b60008061097b83610567565b9050806001600160a01b0316846001600160a01b031614806109c257506001600160a01b0380821660009081526005602090815260408083209388168352929052205460ff165b806109e65750836001600160a01b03166109db84610383565b6001600160a01b0316145b949350505050565b826001600160a01b0316610a0182610567565b6001600160a01b031614610a275760405162461bcd60e51b815260040161041e906112ea565b6001600160a01b038216610a895760405162461bcd60e51b8152602060048201526024808201527f4552433732313a207472616e7366657220746f20746865207a65726f206164646044820152637265737360e01b606482015260840161041e565b826001600160a01b0316610a9c82610567565b6001600160a01b031614610ac25760405162461bcd60e51b815260040161041e906112ea565b600081815260046020908152604080832080546001600160a01b03199081169091556001600160a01b0387811680865260038552838620805460001901905590871680865283862080546001019055868652600290945282852080549092168417909155905184937fddf252ad1be2c89b69c2b068fc378daa952ba7f163c4a11628f55a4df523b3ef91a4505050565b6000610b5d82610567565b9050610b6882610567565b600083815260046020908152604080832080546001600160a01b03199081169091556001600160a01b0385168085526003845282852080546000190190558785526002909352818420805490911690555192935084927fddf252ad1be2c89b69c2b068fc378daa952ba7f163c4a11628f55a4df523b3ef908390a45050565b816001600160a01b0316836001600160a01b031603610c485760405162461bcd60e51b815260206004820152601960248201527f4552433732313a20617070726f766520746f2063616c6c657200000000000000604482015260640161041e565b6001600160a01b03838116600081815260056020908152604080832094871680845294825291829020805460ff191686151590811790915591519182527f17307eab39ab6107e8899845ad3d59bd9653f200f220920489ca2b5937696c31910160405180910390a3505050565b610cc08484846109ee565b610ccc84848484610d7b565b61069d5760405162461bcd60e51b815260040161041e9061132f565b60606000610cf583610e7c565b600101905060008167ffffffffffffffff811115610d1557610d1561110f565b6040519080825280601f01601f191660200182016040528015610d3f576020820181803683370190505b5090508181016020015b600019016f181899199a1a9b1b9c1cb0b131b232b360811b600a86061a8153600a8504945084610d4957509392505050565b60006001600160a01b0384163b15610e7157604051630a85bd0160e11b81526001600160a01b0385169063150b7a0290610dbf903390899088908890600401611381565b6020604051808303816000875af1925050508015610dfa575060408051601f3d908101601f19168201909252610df7918101906113be565b60015b610e57573d808015610e28576040519150601f19603f3d011682016040523d82523d6000602084013e610e2d565b606091505b508051600003610e4f5760405162461bcd60e51b815260040161041e9061132f565b805181602001fd5b6001600160e01b031916630a85bd0160e11b1490506109e6565b506001949350505050565b60008072184f03e93ff9f4daa797ed6e38ed64bf6a1f0160401b8310610ebb5772184f03e93ff9f4daa797ed6e38ed64bf6a1f0160401b830492506040015b6d04ee2d6d415b85acef81000000008310610ee7576d04ee2d6d415b85acef8100000000830492506020015b662386f26fc100008310610f0557662386f26fc10000830492506010015b6305f5e1008310610f1d576305f5e100830492506008015b6127108310610f3157612710830492506004015b60648310610f43576064830492506002015b600a83106102eb5760010192915050565b6001600160e01b03198116811461056457600080fd5b600060208284031215610f7c57600080fd5b813561071081610f54565b60005b83811015610fa2578181015183820152602001610f8a565b50506000910152565b60008151808452610fc3816020860160208601610f87565b601f01601f19169290920160200192915050565b6020815260006107106020830184610fab565b600060208284031215610ffc57600080fd5b5035919050565b80356001600160a01b038116811461101a57600080fd5b919050565b6000806040838503121561103257600080fd5b61103b83611003565b946020939093013593505050565b60008060006060848603121561105e57600080fd5b61106784611003565b95602085013595506040909401359392505050565b60008060006060848603121561109157600080fd5b61109a84611003565b92506110a860208501611003565b9150604084013590509250925092565b6000602082840312156110ca57600080fd5b61071082611003565b600080604083850312156110e657600080fd5b6110ef83611003565b91506020830135801515811461110457600080fd5b809150509250929050565b634e487b7160e01b600052604160045260246000fd5b6000806000806080858703121561113b57600080fd5b61114485611003565b935061115260208601611003565b925060408501359150606085013567ffffffffffffffff8082111561117657600080fd5b818701915087601f83011261118a57600080fd5b81358181111561119c5761119c61110f565b604051601f8201601f19908116603f011681019083821181831017156111c4576111c461110f565b816040528281528a60208487010111156111dd57600080fd5b82602086016020830137600060208483010152809550505050505092959194509250565b6000806040838503121561121457600080fd5b61121d83611003565b915061122b60208401611003565b90509250929050565b600181811c9082168061124857607f821691505b60208210810361126857634e487b7160e01b600052602260045260246000fd5b50919050565b6020808252602d908201527f4552433732313a2063616c6c6572206973206e6f7420746f6b656e206f776e6560408201526c1c881bdc88185c1c1c9bdd9959609a1b606082015260800190565b600083516112cd818460208801610f87565b8351908301906112e1818360208801610f87565b01949350505050565b60208082526025908201527f4552433732313a207472616e736665722066726f6d20696e636f72726563742060408201526437bbb732b960d91b606082015260800190565b60208082526032908201527f4552433732313a207472616e7366657220746f206e6f6e20455243373231526560408201527131b2b4bb32b91034b6b83632b6b2b73a32b960711b606082015260800190565b6001600160a01b03858116825284166020820152604081018390526080606082018190526000906113b490830184610fab565b9695505050505050565b6000602082840312156113d057600080fd5b815161071081610f5456fea2646970667358221220905e515ecc31d45450361474bdd87caefb68077dd6e808f3f4aa94f40ac22aa564736f6c63430008130033",
    "linkReferences": {}
  },
  "methodIdentifiers": {
    "batch(address[],address[],uint256[],address[],bytes32[])": "5bfa6eae",
    "getBytecode(address,address,uint256,address)": "85a2a8b6",
    "getPaymentAddress(address,address,uint256,address,bytes32)": "262b325a",
    "issueRefund(address,address,uint256,bytes32)": "8c2e45c2",
    "markSuccussfulTransfer()": "d328f932",
    "processPayment(address,address,uint256,address,bytes32)": "f470433f",
    "processRefund(address,address,address,bytes32)": "0b37a687"
  },
  "id": 39
}